{
  "_format": "hh3-artifact-1",
  "contractName": "MessageVault",
  "sourceName": "contracts/MessageVault.sol",
  "abi": [
    {
      "inputs": [
        {
          "internalType": "address",
          "name": "_owner",
          "type": "address"
        }
      ],
      "stateMutability": "nonpayable",
      "type": "constructor"
    },
    {
      "inputs": [],
      "name": "ECDSAInvalidSignature",
      "type": "error"
    },
    {
      "inputs": [
        {
          "internalType": "uint256",
          "name": "length",
          "type": "uint256"
        }
      ],
      "name": "ECDSAInvalidSignatureLength",
      "type": "error"
    },
    {
      "inputs": [
        {
          "internalType": "bytes32",
          "name": "s",
          "type": "bytes32"
        }
      ],
      "name": "ECDSAInvalidSignatureS",
      "type": "error"
    },
    {
      "inputs": [],
      "name": "EmptyContent",
      "type": "error"
    },
    {
      "inputs": [],
      "name": "EntryPointNotSet",
      "type": "error"
    },
    {
      "inputs": [],
      "name": "ExecuteFailed",
      "type": "error"
    },
    {
      "inputs": [],
      "name": "InvalidEntryPoint",
      "type": "error"
    },
    {
      "inputs": [],
      "name": "InvalidTarget",
      "type": "error"
    },
    {
      "inputs": [],
      "name": "NotEntryPoint",
      "type": "error"
    },
    {
      "inputs": [],
      "name": "OnlyOwner",
      "type": "error"
    },
    {
      "inputs": [],
      "name": "OnlyOwnerOrEntryPoint",
      "type": "error"
    },
    {
      "inputs": [],
      "name": "ReentrancyGuardReentrantCall",
      "type": "error"
    },
    {
      "inputs": [],
      "name": "WrongSender",
      "type": "error"
    },
    {
      "inputs": [],
      "name": "ZeroOwner",
      "type": "error"
    },
    {
      "anonymous": false,
      "inputs": [
        {
          "indexed": true,
          "internalType": "address",
          "name": "newEntryPoint",
          "type": "address"
        }
      ],
      "name": "EntryPointSet",
      "type": "event"
    },
    {
      "anonymous": false,
      "inputs": [
        {
          "indexed": true,
          "internalType": "address",
          "name": "recipient",
          "type": "address"
        },
        {
          "indexed": true,
          "internalType": "address",
          "name": "sender",
          "type": "address"
        },
        {
          "indexed": true,
          "internalType": "uint256",
          "name": "id",
          "type": "uint256"
        },
        {
          "indexed": false,
          "internalType": "string",
          "name": "content",
          "type": "string"
        }
      ],
      "name": "MessageStored",
      "type": "event"
    },
    {
      "anonymous": false,
      "inputs": [
        {
          "indexed": true,
          "internalType": "address",
          "name": "oldOwner",
          "type": "address"
        },
        {
          "indexed": true,
          "internalType": "address",
          "name": "newOwner",
          "type": "address"
        }
      ],
      "name": "OwnerChanged",
      "type": "event"
    },
    {
      "inputs": [],
      "name": "addDeposit",
      "outputs": [],
      "stateMutability": "payable",
      "type": "function"
    },
    {
      "inputs": [],
      "name": "entryPoint",
      "outputs": [
        {
          "internalType": "contract IEntryPoint",
          "name": "",
          "type": "address"
        }
      ],
      "stateMutability": "view",
      "type": "function"
    },
    {
      "inputs": [],
      "name": "entryPointBalance",
      "outputs": [
        {
          "internalType": "uint256",
          "name": "",
          "type": "uint256"
        }
      ],
      "stateMutability": "view",
      "type": "function"
    },
    {
      "inputs": [
        {
          "internalType": "address",
          "name": "target",
          "type": "address"
        },
        {
          "internalType": "uint256",
          "name": "value",
          "type": "uint256"
        },
        {
          "internalType": "bytes",
          "name": "data",
          "type": "bytes"
        }
      ],
      "name": "execute",
      "outputs": [
        {
          "internalType": "bytes",
          "name": "result",
          "type": "bytes"
        }
      ],
      "stateMutability": "nonpayable",
      "type": "function"
    },
    {
      "inputs": [],
      "name": "nextMessageId",
      "outputs": [
        {
          "internalType": "uint256",
          "name": "",
          "type": "uint256"
        }
      ],
      "stateMutability": "view",
      "type": "function"
    },
    {
      "inputs": [],
      "name": "owner",
      "outputs": [
        {
          "internalType": "address",
          "name": "",
          "type": "address"
        }
      ],
      "stateMutability": "view",
      "type": "function"
    },
    {
      "inputs": [
        {
          "internalType": "string",
          "name": "content",
          "type": "string"
        }
      ],
      "name": "sendMessageToWallet",
      "outputs": [
        {
          "internalType": "uint256",
          "name": "id",
          "type": "uint256"
        }
      ],
      "stateMutability": "nonpayable",
      "type": "function"
    },
    {
      "inputs": [
        {
          "internalType": "address",
          "name": "ep",
          "type": "address"
        }
      ],
      "name": "setEntryPoint",
      "outputs": [],
      "stateMutability": "nonpayable",
      "type": "function"
    },
    {
      "inputs": [
        {
          "internalType": "address",
          "name": "newOwner",
          "type": "address"
        }
      ],
      "name": "setOwner",
      "outputs": [],
      "stateMutability": "nonpayable",
      "type": "function"
    },
    {
      "inputs": [
        {
          "components": [
            {
              "internalType": "address",
              "name": "sender",
              "type": "address"
            },
            {
              "internalType": "uint256",
              "name": "nonce",
              "type": "uint256"
            },
            {
              "internalType": "bytes",
              "name": "initCode",
              "type": "bytes"
            },
            {
              "internalType": "bytes",
              "name": "callData",
              "type": "bytes"
            },
            {
              "internalType": "bytes32",
              "name": "accountGasLimits",
              "type": "bytes32"
            },
            {
              "internalType": "uint256",
              "name": "preVerificationGas",
              "type": "uint256"
            },
            {
              "internalType": "bytes32",
              "name": "gasFees",
              "type": "bytes32"
            },
            {
              "internalType": "bytes",
              "name": "paymasterAndData",
              "type": "bytes"
            },
            {
              "internalType": "bytes",
              "name": "signature",
              "type": "bytes"
            }
          ],
          "internalType": "struct PackedUserOperation",
          "name": "userOp",
          "type": "tuple"
        },
        {
          "internalType": "bytes32",
          "name": "userOpHash",
          "type": "bytes32"
        },
        {
          "internalType": "uint256",
          "name": "",
          "type": "uint256"
        }
      ],
      "name": "validateUserOp",
      "outputs": [
        {
          "internalType": "uint256",
          "name": "validationData",
          "type": "uint256"
        }
      ],
      "stateMutability": "nonpayable",
      "type": "function"
    },
    {
      "inputs": [
        {
          "internalType": "address payable",
          "name": "to",
          "type": "address"
        },
        {
          "internalType": "uint256",
          "name": "amount",
          "type": "uint256"
        }
      ],
      "name": "withdrawDepositTo",
      "outputs": [],
      "stateMutability": "nonpayable",
      "type": "function"
    },
    {
      "stateMutability": "payable",
      "type": "receive"
    }
  ],
  "bytecode": "0x6080604052348015600e575f5ffd5b506040516110b93803806110b9833981016040819052602b916079565b60015f556001600160a01b038116605557604051639905827b60e01b815260040160405180910390fd5b600180546001600160a01b0319166001600160a01b039290921691909117905560a4565b5f602082840312156088575f5ffd5b81516001600160a01b0381168114609d575f5ffd5b9392505050565b611008806100b15f395ff3fe60806040526004361061009d575f3560e01c8063584465f211610062578063584465f2146101365780637f225836146101555780638da5cb5b14610174578063b0d691fe146101ab578063b61d27f6146101ca578063eefbf17e146101f6575f5ffd5b806313af4035146100a857806319822f7c146100c95780634a58db19146100fb5780634d44560d146101035780635777989414610122575f5ffd5b366100a457005b5f5ffd5b3480156100b3575f5ffd5b506100c76100c2366004610d48565b61020b565b005b3480156100d4575f5ffd5b506100e86100e3366004610d63565b6102b8565b6040519081526020015b60405180910390f35b6100c7610439565b34801561010e575f5ffd5b506100c761011d366004610db2565b6104ea565b34801561012d575f5ffd5b506100e86105a3565b348015610141575f5ffd5b506100c7610150366004610d48565b61073d565b348015610160575f5ffd5b506100e861016f366004610e21565b6107d8565b34801561017f575f5ffd5b50600154610193906001600160a01b031681565b6040516001600160a01b0390911681526020016100f2565b3480156101b6575f5ffd5b50600254610193906001600160a01b031681565b3480156101d5575f5ffd5b506101e96101e4366004610e60565b610878565b6040516100f29190610eb8565b348015610201575f5ffd5b506100e860035481565b6001546001600160a01b0316331461023657604051635fc483c560e01b815260040160405180910390fd5b6001600160a01b03811661025d57604051639905827b60e01b815260040160405180910390fd5b6001546040516001600160a01b038084169216907fb532073b38c83145e3e5135377a08bf9aab55bc0fd7c1179cd4fb995d2a5159c905f90a3600180546001600160a01b0319166001600160a01b0392909216919091179055565b6002545f906001600160a01b031633146102e557604051636b31ba1560e11b815260040160405180910390fd5b6004546001600160a01b03161561030757600480546001600160a01b03191690555b6002546001600160a01b031661033057604051631c64385d60e01b815260040160405180910390fd5b3061033e6020860186610d48565b6001600160a01b0316146103655760405163139a959760e21b815260040160405180910390fd5b5f61037b6103766060870187610eed565b610992565b90506001600160e01b03198116610396576001915050610432565b5f6103ae6103a8610100880188610eed565b876109b7565b90506001600160a01b0381166103c957600192505050610432565b6001546001600160a01b038281169116145f81806103f75750633f912c1b60e11b6001600160e01b03198516145b90508061040b576001945050505050610432565b5050600480546001600160a01b0319166001600160a01b0392909216919091179055505f90505b9392505050565b6001546001600160a01b0316331461046457604051635fc483c560e01b815260040160405180910390fd5b6002546001600160a01b031661048d57604051631c64385d60e01b815260040160405180910390fd5b60025460405163b760faf960e01b81523060048201526001600160a01b039091169063b760faf99034906024015f604051808303818588803b1580156104d1575f5ffd5b505af11580156104e3573d5f5f3e3d5ffd5b5050505050565b6001546001600160a01b0316331461051557604051635fc483c560e01b815260040160405180910390fd5b6002546001600160a01b031661053e57604051631c64385d60e01b815260040160405180910390fd5b60025460405163040b850f60e31b81526001600160a01b038481166004830152602482018490529091169063205c2878906044015f604051808303815f87803b158015610589575f5ffd5b505af115801561059b573d5f5f3e3d5ffd5b505050505050565b6002545f906001600160a01b0316806105bd575f91505090565b6040513060248201525f9081906001600160a01b0384169060440160408051601f198184030181529181526020820180516001600160e01b03166370a0823160e01b1790525161060d9190610f30565b5f60405180830381855afa9150503d805f8114610645576040519150601f19603f3d011682016040523d82523d5f602084013e61064a565b606091505b509150915081801561065e57506020815110155b1561067f57808060200190518101906106779190610f46565b935050505090565b6040513060248201525f9081906001600160a01b0386169060440160408051601f198184030181529181526020820180516001600160e01b0316632943e70960e11b179052516106cf9190610f30565b5f60405180830381855afa9150503d805f8114610707576040519150601f19603f3d011682016040523d82523d5f602084013e61070c565b606091505b509150915081801561072057506020815110155b15610732576020015195945050505050565b5f9550505050505090565b6001546001600160a01b0316331461076857604051635fc483c560e01b815260040160405180910390fd5b6001600160a01b03811661078f57604051632039d3c960e01b815260040160405180910390fd5b600280546001600160a01b0319166001600160a01b0383169081179091556040517f41e2b4fb9d855f284604e7592c9eeb72789d1f68bcc53c34f036de5dbb59dcd8905f90a250565b6001545f906001600160a01b03163314806107fd57506002546001600160a01b031633145b61081a5760405163c5ed84e560e01b815260040160405180910390fd5b5f610823610a11565b6002549091505f906001600160a01b031633146108405733610862565b6001600160a01b038216156108555781610862565b6001546001600160a01b03165b905061086f818686610a51565b95945050505050565b6001546060906001600160a01b031633148061089e57506002546001600160a01b031633145b6108bb5760405163c5ed84e560e01b815260040160405180910390fd5b6108c3610add565b6001600160a01b03851615806108e157506001600160a01b03851630145b156108ff5760405163416aebb560e11b815260040160405180910390fd5b5f5f866001600160a01b031686868660405161091c929190610f5d565b5f6040518083038185875af1925050503d805f8114610956576040519150601f19603f3d011682016040523d82523d5f602084013e61095b565b606091505b50915091508161097e5760405163d6bed87360e01b815260040160405180910390fd5b91505061098a60015f55565b949350505050565b5f60048210156109a357505f6109b1565b506001600160e01b03198235165b92915050565b5f604183146109c757505f610432565b61098a84848080601f0160208091040260200160405190810160405280939291908181526020018383808284375f92019190915250610a0b9250869150610b059050565b90610b37565b6002545f906001600160a01b03163303610a4c57506004546001600160a01b03168015610a4957600480546001600160a01b03191690555b90565b505f90565b5f818103610a7257604051633459b81b60e11b815260040160405180910390fd5b60035f8154610a8090610f6c565b919050819055905080846001600160a01b0316306001600160a01b03167f0ab67baa2f75bac604a30f272206ead8793931632ccd28303eef1ac298499c7f8686604051610ace929190610f90565b60405180910390a49392505050565b60025f5403610aff57604051633ee5aeb560e01b815260040160405180910390fd5b60025f55565b7f19457468657265756d205369676e6564204d6573736167653a0a3332000000005f908152601c91909152603c902090565b5f5f5f5f610b458686610b5f565b925092509250610b558282610ba8565b5090949350505050565b5f5f5f8351604103610b96576020840151604085015160608601515f1a610b8888828585610c69565b955095509550505050610ba1565b505081515f91506002905b9250925092565b5f826003811115610bbb57610bbb610fbe565b03610bc4575050565b6001826003811115610bd857610bd8610fbe565b03610bf65760405163f645eedf60e01b815260040160405180910390fd5b6002826003811115610c0a57610c0a610fbe565b03610c305760405163fce698f760e01b8152600481018290526024015b60405180910390fd5b6003826003811115610c4457610c44610fbe565b03610c65576040516335e2f38360e21b815260048101829052602401610c27565b5050565b5f80807f7fffffffffffffffffffffffffffffff5d576e7357a4501ddfe92f46681b20a0841115610ca257505f91506003905082610d27565b604080515f808252602082018084528a905260ff891692820192909252606081018790526080810186905260019060a0016020604051602081039080840390855afa158015610cf3573d5f5f3e3d5ffd5b5050604051601f1901519150506001600160a01b038116610d1e57505f925060019150829050610d27565b92505f91508190505b9450945094915050565b6001600160a01b0381168114610d45575f5ffd5b50565b5f60208284031215610d58575f5ffd5b813561043281610d31565b5f5f5f60608486031215610d75575f5ffd5b833567ffffffffffffffff811115610d8b575f5ffd5b84016101208187031215610d9d575f5ffd5b95602085013595506040909401359392505050565b5f5f60408385031215610dc3575f5ffd5b8235610dce81610d31565b946020939093013593505050565b5f5f83601f840112610dec575f5ffd5b50813567ffffffffffffffff811115610e03575f5ffd5b602083019150836020828501011115610e1a575f5ffd5b9250929050565b5f5f60208385031215610e32575f5ffd5b823567ffffffffffffffff811115610e48575f5ffd5b610e5485828601610ddc565b90969095509350505050565b5f5f5f5f60608587031215610e73575f5ffd5b8435610e7e81610d31565b935060208501359250604085013567ffffffffffffffff811115610ea0575f5ffd5b610eac87828801610ddc565b95989497509550505050565b602081525f82518060208401528060208501604085015e5f604082850101526040601f19601f83011684010191505092915050565b5f5f8335601e19843603018112610f02575f5ffd5b83018035915067ffffffffffffffff821115610f1c575f5ffd5b602001915036819003821315610e1a575f5ffd5b5f82518060208501845e5f920191825250919050565b5f60208284031215610f56575f5ffd5b5051919050565b818382375f9101908152919050565b5f60018201610f8957634e487b7160e01b5f52601160045260245ffd5b5060010190565b60208152816020820152818360408301375f818301604090810191909152601f909201601f19160101919050565b634e487b7160e01b5f52602160045260245ffdfea2646970667358221220f8150abfa669182fe3c052fc9283c89f42bb3cf7036fc9f86b833432e774d73864736f6c634300081c0033",
  "linkReferences": {},
  "deployedLinkReferences": {},
  "immutableReferences": {},
  "inputSourceName": "project/contracts/MessageVault.sol",
  "buildInfoId": "solc-0_8_28-096463c06fcbef7c7ee072df6085a1aaaf405a31"
}